{"abi":[{"type":"constructor","inputs":[{"name":"_appId","type":"string","internalType":"string"}],"stateMutability":"nonpayable"},{"type":"function","name":"generateExternalNullifier","inputs":[{"name":"someText","type":"string","internalType":"string"}],"outputs":[{"name":"","type":"uint256","internalType":"uint256"}],"stateMutability":"view"}],"bytecode":{"object":"0x608060405234801561001057600080fd5b506040516105b83803806105b883398101604081905261002f91610058565b600061003b82826101ad565b505061026b565b634e487b7160e01b600052604160045260246000fd5b60006020828403121561006a57600080fd5b81516001600160401b0381111561008057600080fd5b8201601f8101841361009157600080fd5b80516001600160401b038111156100aa576100aa610042565b604051601f8201601f19908116603f011681016001600160401b03811182821017156100d8576100d8610042565b6040528181528282016020018610156100f057600080fd5b60005b8281101561010f576020818501810151838301820152016100f3565b50600091810160200191909152949350505050565b600181811c9082168061013857607f821691505b60208210810361015857634e487b7160e01b600052602260045260246000fd5b50919050565b601f8211156101a857806000526020600020601f840160051c810160208510156101855750805b601f840160051c820191505b818110156101a55760008155600101610191565b50505b505050565b81516001600160401b038111156101c6576101c6610042565b6101da816101d48454610124565b8461015e565b6020601f82116001811461020e57600083156101f65750848201515b600019600385901b1c1916600184901b1784556101a5565b600084815260208120601f198516915b8281101561023e578785015182556020948501946001909201910161021e565b508482101561025c5786840151600019600387901b60f8161c191681555b50505050600190811b01905550565b61033e8061027a6000396000f3fe608060405234801561001057600080fd5b506004361061002b5760003560e01c8063a099132114610030575b600080fd5b61004361003e366004610133565b610055565b60405190815260200160405180910390f35b6000806100e1610084600060405160200161007091906101ec565b6040516020818303038152906040526100e8565b6040516bffffffffffffffffffffffff193360601b166020820152603401604051602081830303815290604052856040516020016100c291906102af565b60408051601f19818403018152908290526100709392916020016102cb565b9392505050565b60006008826040516020016100fd91906102af565b60408051601f198184030181529190528051602090910120901c92915050565b634e487b7160e01b600052604160045260246000fd5b60006020828403121561014557600080fd5b813567ffffffffffffffff81111561015c57600080fd5b8201601f8101841361016d57600080fd5b803567ffffffffffffffff8111156101875761018761011d565b604051601f8201601f19908116603f0116810167ffffffffffffffff811182821017156101b6576101b661011d565b6040528181528282016020018610156101ce57600080fd5b81602084016020830137600091810160200191909152949350505050565b6000808354818160011c9050600182168061020857607f821691505b60208210810361022657634e487b7160e01b84526022600452602484fd5b80801561023a576001811461024f5761027f565b60ff198416875282151583028701945061027f565b60008881526020902060005b848110156102775781548982015260019091019060200161025b565b505082870194505b50929695505050505050565b60005b838110156102a657818101518382015260200161028e565b50506000910152565b600082516102c181846020870161028b565b9190910192915050565b838152600083516102e381602085016020880161028b565b808301905083516102fb81602084016020880161028b565b016020019594505050505056fea2646970667358221220ae92ee61ed080bbe411c58f9ecdc7150f51b1825718ffd2a35204bfa893c23c564736f6c634300081c0033","linkReferences":{}},"methodIdentifiers":{"generateExternalNullifier(string)":"a0991321"},"id":0}